{
  "contractName": "VictimBalance",
  "abi": [
    {
      "constant": true,
      "inputs": [
        {
          "name": "",
          "type": "address"
        }
      ],
      "name": "userBalances",
      "outputs": [
        {
          "name": "",
          "type": "uint256"
        }
      ],
      "payable": false,
      "stateMutability": "view",
      "type": "function"
    },
    {
      "inputs": [],
      "payable": false,
      "stateMutability": "nonpayable",
      "type": "constructor"
    },
    {
      "anonymous": false,
      "inputs": [
        {
          "indexed": false,
          "name": "",
          "type": "string"
        }
      ],
      "name": "MessageLog",
      "type": "event"
    },
    {
      "anonymous": false,
      "inputs": [
        {
          "indexed": false,
          "name": "",
          "type": "uint256"
        }
      ],
      "name": "BalanceLog",
      "type": "event"
    },
    {
      "constant": false,
      "inputs": [],
      "name": "addToBalance",
      "outputs": [],
      "payable": true,
      "stateMutability": "payable",
      "type": "function"
    },
    {
      "constant": false,
      "inputs": [],
      "name": "withdrawBalance",
      "outputs": [
        {
          "name": "",
          "type": "bool"
        }
      ],
      "payable": true,
      "stateMutability": "payable",
      "type": "function"
    }
  ],
  "bytecode": "0x608060405234801561001057600080fd5b5061041f806100206000396000f300608060405260043610610057576000357c0100000000000000000000000000000000000000000000000000000000900463ffffffff16806326224c641461005c5780635fd8c710146100b3578063c0e317fb146100d5575b600080fd5b34801561006857600080fd5b5061009d600480360381019080803573ffffffffffffffffffffffffffffffffffffffff1690602001909291905050506100df565b6040518082815260200191505060405180910390f35b6100bb6100f7565b604051808215151515815260200191505060405180910390f35b6100dd6103a5565b005b60006020528060005260406000206000915090505481565b6000807fded73d9b7994988fc49241f75c8f6577ad0070900ff55ffe76e498cf7e03bef46040518080602001828103825260188152602001807f776974686472617742616c616e636520737461727465642e000000000000000081525060200191505060405180910390a17ff2391d8dbc32497f9baae4de68d33743cb9201338aae34c59bd74cd175aaba7f3073ffffffffffffffffffffffffffffffffffffffff16316040518082815260200191505060405180910390a160008060003373ffffffffffffffffffffffffffffffffffffffff1673ffffffffffffffffffffffffffffffffffffffff168152602001908152602001600020541415610268577fded73d9b7994988fc49241f75c8f6577ad0070900ff55ffe76e498cf7e03bef460405180806020018281038252600b8152602001807f4e6f2042616c616e63652e00000000000000000000000000000000000000000081525060200191505060405180910390a1600091506103a1565b6000803373ffffffffffffffffffffffffffffffffffffffff1673ffffffffffffffffffffffffffffffffffffffff16815260200190815260200160002054905060008060003373ffffffffffffffffffffffffffffffffffffffff1673ffffffffffffffffffffffffffffffffffffffff168152602001908152602001600020819055503373ffffffffffffffffffffffffffffffffffffffff166108fc829081150290604051600060405180830381858888f19350505050158015610333573d6000803e3d6000fd5b507fded73d9b7994988fc49241f75c8f6577ad0070900ff55ffe76e498cf7e03bef46040518080602001828103825260198152602001807f776974686472617742616c616e63652066696e69736865642e0000000000000081525060200191505060405180910390a1600091505b5090565b346000803373ffffffffffffffffffffffffffffffffffffffff1673ffffffffffffffffffffffffffffffffffffffff168152602001908152602001600020600082825401925050819055505600a165627a7a7230582035f67aab87ed4899d5c37ade6a7c63994b8b9ace7a372ed5b371abfbdc9ef41f0029",
  "source": "pragma solidity ^0.4.18;\n\ncontract VictimBalance {\n\n  mapping (address => uint) public userBalances;\n  event MessageLog(string);\n  event BalanceLog(uint);\n\n  function VictimBalance() public {\n\n  }\n\n  function addToBalance() public payable {\n    userBalances[msg.sender] += msg.value;\n  }\n\n  function withdrawBalance() public payable returns(bool) {\n    emit MessageLog(\"withdrawBalance started.\");\n    emit BalanceLog(address(this).balance);\n\n    if(userBalances[msg.sender] == 0){\n      emit MessageLog(\"No Balance.\");\n      return false;\n    }\n\n    uint amount = userBalances[msg.sender];\n\n    userBalances[msg.sender] = 0;\n\n    msg.sender.transfer(amount);\n\n    emit MessageLog(\"withdrawBalance finished.\");\n\n    return false;\n  }\n}",
  "sourcePath": "/Users/nagaishou/blockchain_workspace/projects/hackathon/contracts/VictimBalance.sol",
  "compiler": {
    "name": "solc",
    "version": "0.4.23+commit.124ca40d.Emscripten.clang"
  },
  "schemaVersion": "2.0.0",
  "updatedAt": "2018-06-29T13:55:28.852Z"
}